{
  "contractName": "Destroyable",
  "abi": [
    {
      "constant": true,
      "inputs": [],
      "name": "getOwner",
      "outputs": [
        {
          "name": "",
          "type": "address"
        }
      ],
      "payable": false,
      "stateMutability": "view",
      "type": "function"
    },
    {
      "constant": false,
      "inputs": [
        {
          "name": "newOwner",
          "type": "address"
        }
      ],
      "name": "changeOwner",
      "outputs": [],
      "payable": false,
      "stateMutability": "nonpayable",
      "type": "function"
    },
    {
      "anonymous": false,
      "inputs": [
        {
          "indexed": true,
          "name": "admin",
          "type": "address"
        },
        {
          "indexed": false,
          "name": "deadline",
          "type": "uint256"
        },
        {
          "indexed": false,
          "name": "beneficiary",
          "type": "address"
        }
      ],
      "name": "LogDestructionInitiated",
      "type": "event"
    },
    {
      "anonymous": false,
      "inputs": [
        {
          "indexed": true,
          "name": "admin",
          "type": "address"
        }
      ],
      "name": "LogDestructionCanceled",
      "type": "event"
    },
    {
      "anonymous": false,
      "inputs": [],
      "name": "LogDestructionCompleted",
      "type": "event"
    },
    {
      "anonymous": false,
      "inputs": [
        {
          "indexed": true,
          "name": "oldOwner",
          "type": "address"
        },
        {
          "indexed": true,
          "name": "newOwner",
          "type": "address"
        }
      ],
      "name": "LogNewOwner",
      "type": "event"
    },
    {
      "constant": false,
      "inputs": [
        {
          "name": "_beneficiary",
          "type": "address"
        }
      ],
      "name": "initiateDestruction",
      "outputs": [],
      "payable": false,
      "stateMutability": "nonpayable",
      "type": "function"
    },
    {
      "constant": false,
      "inputs": [],
      "name": "cancelDestruction",
      "outputs": [],
      "payable": false,
      "stateMutability": "nonpayable",
      "type": "function"
    },
    {
      "constant": false,
      "inputs": [],
      "name": "completeDestruction",
      "outputs": [],
      "payable": false,
      "stateMutability": "nonpayable",
      "type": "function"
    },
    {
      "constant": true,
      "inputs": [],
      "name": "getDeadline",
      "outputs": [
        {
          "name": "",
          "type": "uint256"
        }
      ],
      "payable": false,
      "stateMutability": "view",
      "type": "function"
    },
    {
      "constant": true,
      "inputs": [],
      "name": "getBeneficiary",
      "outputs": [
        {
          "name": "",
          "type": "address"
        }
      ],
      "payable": false,
      "stateMutability": "view",
      "type": "function"
    }
  ],
  "bytecode": "0x6080604052336000806101000a81548173ffffffffffffffffffffffffffffffffffffffff021916908373ffffffffffffffffffffffffffffffffffffffff160217905550610b17806100536000396000f3fe608060405260043610610083576000357c0100000000000000000000000000000000000000000000000000000000900463ffffffff1680631fb78129146100885780632beded061461009f5780634bdf34ba146100b6578063565a2e2c146101075780635f8d96de1461015e578063893d20e814610189578063a6f9dae1146101e0575b600080fd5b34801561009457600080fd5b5061009d610231565b005b3480156100ab57600080fd5b506100b46103b2565b005b3480156100c257600080fd5b50610105600480360360208110156100d957600080fd5b81019080803573ffffffffffffffffffffffffffffffffffffffff169060200190929190505050610564565b005b34801561011357600080fd5b5061011c610862565b604051808273ffffffffffffffffffffffffffffffffffffffff1673ffffffffffffffffffffffffffffffffffffffff16815260200191505060405180910390f35b34801561016a57600080fd5b5061017361088c565b6040518082815260200191505060405180910390f35b34801561019557600080fd5b5061019e610896565b604051808273ffffffffffffffffffffffffffffffffffffffff1673ffffffffffffffffffffffffffffffffffffffff16815260200191505060405180910390f35b3480156101ec57600080fd5b5061022f6004803603602081101561020357600080fd5b81019080803573ffffffffffffffffffffffffffffffffffffffff1690602001909291905050506108bf565b005b6000600154141515156102d2576040517f08c379a00000000000000000000000000000000000000000000000000000000081526004018080602001828103825260228152602001807f4465737472756374696f6e20686173206e6f74206265656e20696e697469617481526020017f656400000000000000000000000000000000000000000000000000000000000081525060400191505060405180910390fd5b6001544311151561034b576040517f08c379a000000000000000000000000000000000000000000000000000000000815260040180806020018281038252601b8152602001807f446561646c696e6520686173206e6f742079657420706173736564000000000081525060200191505060405180910390fd5b7fb81d728241963bec92d4e788860d8e7ef4f69daaed9d86fac5d819a549f4be0a60405160405180910390a1600260009054906101000a900473ffffffffffffffffffffffffffffffffffffffff1673ffffffffffffffffffffffffffffffffffffffff16ff5b6000809054906101000a900473ffffffffffffffffffffffffffffffffffffffff1673ffffffffffffffffffffffffffffffffffffffff163373ffffffffffffffffffffffffffffffffffffffff16141515610476576040517f08c379a00000000000000000000000000000000000000000000000000000000081526004018080602001828103825260188152602001807f4f6e6c792065786563757461626c65206279206f776e6572000000000000000081525060200191505060405180910390fd5b600060015414151515610517576040517f08c379a00000000000000000000000000000000000000000000000000000000081526004018080602001828103825260228152602001807f4465737472756374696f6e20686173206e6f74206265656e20696e697469617481526020017f656400000000000000000000000000000000000000000000000000000000000081525060400191505060405180910390fd5b3373ffffffffffffffffffffffffffffffffffffffff167fdec9a142fdb016e61863276bb7140a8fe34057431ccc100b0ad7c27f420e279760405160405180910390a26000600181905550565b6000809054906101000a900473ffffffffffffffffffffffffffffffffffffffff1673ffffffffffffffffffffffffffffffffffffffff163373ffffffffffffffffffffffffffffffffffffffff16141515610628576040517f08c379a00000000000000000000000000000000000000000000000000000000081526004018080602001828103825260188152602001807f4f6e6c792065786563757461626c65206279206f776e6572000000000000000081525060200191505060405180910390fd5b60006001541415156106a2576040517f08c379a00000000000000000000000000000000000000000000000000000000081526004018080602001828103825260118152602001807f416c726561647920696e6974696174656400000000000000000000000000000081525060200191505060405180910390fd5b600073ffffffffffffffffffffffffffffffffffffffff168173ffffffffffffffffffffffffffffffffffffffff161415151561076d576040517f08c379a00000000000000000000000000000000000000000000000000000000081526004018080602001828103825260238152602001807f42656e65666963696172792063616e206e6f74206265207a65726f206164647281526020017f657373000000000000000000000000000000000000000000000000000000000081525060400191505060405180910390fd5b611680430160018190555080600260006101000a81548173ffffffffffffffffffffffffffffffffffffffff021916908373ffffffffffffffffffffffffffffffffffffffff1602179055503373ffffffffffffffffffffffffffffffffffffffff167f8468ba03d4fb25dcd2a97a5383b05423a14d6f8d43afb9cb0c0ef75bdd55791e600154600260009054906101000a900473ffffffffffffffffffffffffffffffffffffffff16604051808381526020018273ffffffffffffffffffffffffffffffffffffffff1673ffffffffffffffffffffffffffffffffffffffff1681526020019250505060405180910390a250565b6000600260009054906101000a900473ffffffffffffffffffffffffffffffffffffffff16905090565b6000600154905090565b60008060009054906101000a900473ffffffffffffffffffffffffffffffffffffffff16905090565b6000809054906101000a900473ffffffffffffffffffffffffffffffffffffffff1673ffffffffffffffffffffffffffffffffffffffff163373ffffffffffffffffffffffffffffffffffffffff16141515610983576040517f08c379a00000000000000000000000000000000000000000000000000000000081526004018080602001828103825260188152602001807f4f6e6c792065786563757461626c65206279206f776e6572000000000000000081525060200191505060405180910390fd5b600073ffffffffffffffffffffffffffffffffffffffff168173ffffffffffffffffffffffffffffffffffffffff1614151515610a4e576040517f08c379a00000000000000000000000000000000000000000000000000000000081526004018080602001828103825260218152602001807f6e65774f776e6572206d757374206265206e6f6e207a65726f2061646472657381526020017f730000000000000000000000000000000000000000000000000000000000000081525060400191505060405180910390fd5b8073ffffffffffffffffffffffffffffffffffffffff163373ffffffffffffffffffffffffffffffffffffffff167f1f8d7d25344642d919d55999e4664aa452a5f424bc0936ceb9c2b300db7dcbd960405160405180910390a3806000806101000a81548173ffffffffffffffffffffffffffffffffffffffff021916908373ffffffffffffffffffffffffffffffffffffffff1602179055505056fea165627a7a72305820a3d7a296f81511211b8624e5f405ef55e65876ed9befffb2f70e744822c3b6b20029",
  "source": "pragma solidity ^0.5.0;\n\nimport \"./Ownable.sol\";\n\ncontract Destroyable is Ownable {\n\n    uint256 private deadline;\n    address payable private beneficiary;\n\n    event LogDestructionInitiated(address indexed admin, uint256 deadline, address beneficiary);\n    event LogDestructionCanceled(address indexed admin);\n    event LogDestructionCompleted();\n\n    function initiateDestruction(address payable _beneficiary) public onlyOwner {\n        require(deadline == 0, \"Already initiated\");\n        require(_beneficiary != address(0), \"Beneficiary can not be zero address\");\n        deadline = block.number + 5760;  // ~ 1 day\n        beneficiary = _beneficiary;\n        emit LogDestructionInitiated(msg.sender, deadline, beneficiary);\n    }\n\n    function cancelDestruction() public onlyOwner {\n        require(deadline != 0, \"Destruction has not been initiated\");\n        emit LogDestructionCanceled(msg.sender);\n        deadline = 0;\n    }\n\n    function completeDestruction() public {\n        require(deadline != 0, \"Destruction has not been initiated\");\n        require(block.number > deadline, \"Deadline has not yet passed\");\n        emit LogDestructionCompleted();\n        selfdestruct(beneficiary);\n    }\n\n    function getDeadline() public view returns (uint256) {\n        return deadline;\n    }\n\n    function getBeneficiary() public view returns (address) {\n        return beneficiary;\n    }\n}",
  "sourcePath": "/home/ku/dev/learn/b9lab/b9lab-eth-remittance/contracts/Destroyable.sol",
  "compiler": {
    "name": "solc",
    "version": "0.5.0+commit.1d4f565a.Emscripten.clang"
  },
  "schemaVersion": "3.0.5",
  "updatedAt": "2019-06-05T11:53:27.375Z",
  "devdoc": {
    "methods": {}
  },
  "userdoc": {
    "methods": {}
  }
}