{
  "contractName": "Remittance",
  "abi": [
    {
      "constant": false,
      "inputs": [],
      "name": "completeDestruction",
      "outputs": [],
      "payable": false,
      "stateMutability": "nonpayable",
      "type": "function"
    },
    {
      "constant": true,
      "inputs": [
        {
          "name": "",
          "type": "address"
        }
      ],
      "name": "balances",
      "outputs": [
        {
          "name": "",
          "type": "uint256"
        }
      ],
      "payable": false,
      "stateMutability": "view",
      "type": "function"
    },
    {
      "constant": false,
      "inputs": [],
      "name": "cancelDestruction",
      "outputs": [],
      "payable": false,
      "stateMutability": "nonpayable",
      "type": "function"
    },
    {
      "constant": false,
      "inputs": [
        {
          "name": "_beneficiary",
          "type": "address"
        }
      ],
      "name": "initiateDestruction",
      "outputs": [],
      "payable": false,
      "stateMutability": "nonpayable",
      "type": "function"
    },
    {
      "constant": true,
      "inputs": [],
      "name": "getBeneficiary",
      "outputs": [
        {
          "name": "",
          "type": "address"
        }
      ],
      "payable": false,
      "stateMutability": "view",
      "type": "function"
    },
    {
      "constant": true,
      "inputs": [],
      "name": "getDeadline",
      "outputs": [
        {
          "name": "",
          "type": "uint256"
        }
      ],
      "payable": false,
      "stateMutability": "view",
      "type": "function"
    },
    {
      "constant": true,
      "inputs": [],
      "name": "getOwner",
      "outputs": [
        {
          "name": "",
          "type": "address"
        }
      ],
      "payable": false,
      "stateMutability": "view",
      "type": "function"
    },
    {
      "constant": false,
      "inputs": [
        {
          "name": "newOwner",
          "type": "address"
        }
      ],
      "name": "changeOwner",
      "outputs": [],
      "payable": false,
      "stateMutability": "nonpayable",
      "type": "function"
    },
    {
      "constant": true,
      "inputs": [
        {
          "name": "",
          "type": "bytes32"
        }
      ],
      "name": "transferList",
      "outputs": [
        {
          "name": "sender",
          "type": "address"
        },
        {
          "name": "amount",
          "type": "uint256"
        },
        {
          "name": "deadline",
          "type": "uint256"
        }
      ],
      "payable": false,
      "stateMutability": "view",
      "type": "function"
    },
    {
      "anonymous": false,
      "inputs": [
        {
          "indexed": true,
          "name": "secretHash",
          "type": "bytes32"
        },
        {
          "indexed": true,
          "name": "sender",
          "type": "address"
        },
        {
          "indexed": true,
          "name": "exchange",
          "type": "address"
        },
        {
          "indexed": false,
          "name": "amount",
          "type": "uint256"
        },
        {
          "indexed": false,
          "name": "deadline",
          "type": "uint256"
        }
      ],
      "name": "LogNewTransfer",
      "type": "event"
    },
    {
      "anonymous": false,
      "inputs": [
        {
          "indexed": true,
          "name": "secretHash",
          "type": "bytes32"
        }
      ],
      "name": "LogTransferCompleted",
      "type": "event"
    },
    {
      "anonymous": false,
      "inputs": [
        {
          "indexed": true,
          "name": "secretHash",
          "type": "bytes32"
        }
      ],
      "name": "LogTransferReverted",
      "type": "event"
    },
    {
      "anonymous": false,
      "inputs": [
        {
          "indexed": true,
          "name": "user",
          "type": "address"
        },
        {
          "indexed": false,
          "name": "amount",
          "type": "uint256"
        }
      ],
      "name": "LogWithdrawal",
      "type": "event"
    },
    {
      "anonymous": false,
      "inputs": [
        {
          "indexed": true,
          "name": "admin",
          "type": "address"
        },
        {
          "indexed": false,
          "name": "deadline",
          "type": "uint256"
        },
        {
          "indexed": false,
          "name": "beneficiary",
          "type": "address"
        }
      ],
      "name": "LogDestructionInitiated",
      "type": "event"
    },
    {
      "anonymous": false,
      "inputs": [
        {
          "indexed": true,
          "name": "admin",
          "type": "address"
        }
      ],
      "name": "LogDestructionCanceled",
      "type": "event"
    },
    {
      "anonymous": false,
      "inputs": [],
      "name": "LogDestructionCompleted",
      "type": "event"
    },
    {
      "anonymous": false,
      "inputs": [
        {
          "indexed": true,
          "name": "oldOwner",
          "type": "address"
        },
        {
          "indexed": true,
          "name": "newOwner",
          "type": "address"
        }
      ],
      "name": "LogNewOwner",
      "type": "event"
    },
    {
      "constant": false,
      "inputs": [],
      "name": "withdraw",
      "outputs": [],
      "payable": false,
      "stateMutability": "nonpayable",
      "type": "function"
    },
    {
      "constant": true,
      "inputs": [],
      "name": "getFee",
      "outputs": [
        {
          "name": "",
          "type": "uint256"
        }
      ],
      "payable": false,
      "stateMutability": "pure",
      "type": "function"
    },
    {
      "constant": false,
      "inputs": [
        {
          "name": "exchange",
          "type": "address"
        },
        {
          "name": "deadline",
          "type": "uint256"
        },
        {
          "name": "secretHash",
          "type": "bytes32"
        }
      ],
      "name": "startTransfer",
      "outputs": [],
      "payable": true,
      "stateMutability": "payable",
      "type": "function"
    },
    {
      "constant": false,
      "inputs": [
        {
          "name": "secretHash",
          "type": "bytes32"
        },
        {
          "name": "secret",
          "type": "bytes32"
        }
      ],
      "name": "completeTransfer",
      "outputs": [],
      "payable": false,
      "stateMutability": "nonpayable",
      "type": "function"
    },
    {
      "constant": false,
      "inputs": [
        {
          "name": "secretHash",
          "type": "bytes32"
        }
      ],
      "name": "resolveTransfer",
      "outputs": [],
      "payable": false,
      "stateMutability": "nonpayable",
      "type": "function"
    },
    {
      "constant": true,
      "inputs": [
        {
          "name": "secret",
          "type": "bytes32"
        },
        {
          "name": "exchange",
          "type": "address"
        }
      ],
      "name": "createSecretHash",
      "outputs": [
        {
          "name": "",
          "type": "bytes32"
        }
      ],
      "payable": false,
      "stateMutability": "view",
      "type": "function"
    }
  ],
  "bytecode": "0x6080604052336000806101000a81548173ffffffffffffffffffffffffffffffffffffffff021916908373ffffffffffffffffffffffffffffffffffffffff160217905550611bff806100536000396000f3fe6080604052600436106100db576000357c0100000000000000000000000000000000000000000000000000000000900463ffffffff1680631fb78129146100e057806327e235e3146100f75780632beded061461015c5780633879735c146101735780633ccfd60b146101ae5780634bdf34ba146101c5578063565a2e2c146102165780635f8d96de1461026d578063893d20e814610298578063a6f9dae1146102ef578063b8ff27af14610340578063ced72f87146103af578063d8cb2a8c146103da578063e8672aa014610463578063f664d208146104bb575b600080fd5b3480156100ec57600080fd5b506100f5610500565b005b34801561010357600080fd5b506101466004803603602081101561011a57600080fd5b81019080803573ffffffffffffffffffffffffffffffffffffffff169060200190929190505050610681565b6040518082815260200191505060405180910390f35b34801561016857600080fd5b50610171610699565b005b34801561017f57600080fd5b506101ac6004803603602081101561019657600080fd5b810190808035906020019092919050505061084b565b005b3480156101ba57600080fd5b506101c3610b07565b005b3480156101d157600080fd5b50610214600480360360208110156101e857600080fd5b81019080803573ffffffffffffffffffffffffffffffffffffffff169060200190929190505050610ca0565b005b34801561022257600080fd5b5061022b610f9e565b604051808273ffffffffffffffffffffffffffffffffffffffff1673ffffffffffffffffffffffffffffffffffffffff16815260200191505060405180910390f35b34801561027957600080fd5b50610282610fc8565b6040518082815260200191505060405180910390f35b3480156102a457600080fd5b506102ad610fd2565b604051808273ffffffffffffffffffffffffffffffffffffffff1673ffffffffffffffffffffffffffffffffffffffff16815260200191505060405180910390f35b3480156102fb57600080fd5b5061033e6004803603602081101561031257600080fd5b81019080803573ffffffffffffffffffffffffffffffffffffffff169060200190929190505050610ffb565b005b34801561034c57600080fd5b506103996004803603604081101561036357600080fd5b8101908080359060200190929190803573ffffffffffffffffffffffffffffffffffffffff169060200190929190505050611227565b6040518082815260200191505060405180910390f35b3480156103bb57600080fd5b506103c461138a565b6040518082815260200191505060405180910390f35b3480156103e657600080fd5b50610413600480360360208110156103fd57600080fd5b8101908080359060200190929190505050611393565b604051808473ffffffffffffffffffffffffffffffffffffffff1673ffffffffffffffffffffffffffffffffffffffff168152602001838152602001828152602001935050505060405180910390f35b6104b96004803603606081101561047957600080fd5b81019080803573ffffffffffffffffffffffffffffffffffffffff16906020019092919080359060200190929190803590602001909291905050506113dd565b005b3480156104c757600080fd5b506104fe600480360360408110156104de57600080fd5b8101908080359060200190929190803590602001909291905050506118ea565b005b6000600154141515156105a1576040517f08c379a00000000000000000000000000000000000000000000000000000000081526004018080602001828103825260228152602001807f4465737472756374696f6e20686173206e6f74206265656e20696e697469617481526020017f656400000000000000000000000000000000000000000000000000000000000081525060400191505060405180910390fd5b6001544311151561061a576040517f08c379a000000000000000000000000000000000000000000000000000000000815260040180806020018281038252601b8152602001807f446561646c696e6520686173206e6f742079657420706173736564000000000081525060200191505060405180910390fd5b7fb81d728241963bec92d4e788860d8e7ef4f69daaed9d86fac5d819a549f4be0a60405160405180910390a1600260009054906101000a900473ffffffffffffffffffffffffffffffffffffffff1673ffffffffffffffffffffffffffffffffffffffff16ff5b60056020528060005260406000206000915090505481565b6000809054906101000a900473ffffffffffffffffffffffffffffffffffffffff1673ffffffffffffffffffffffffffffffffffffffff163373ffffffffffffffffffffffffffffffffffffffff1614151561075d576040517f08c379a00000000000000000000000000000000000000000000000000000000081526004018080602001828103825260188152602001807f4f6e6c792065786563757461626c65206279206f776e6572000000000000000081525060200191505060405180910390fd5b6000600154141515156107fe576040517f08c379a00000000000000000000000000000000000000000000000000000000081526004018080602001828103825260228152602001807f4465737472756374696f6e20686173206e6f74206265656e20696e697469617481526020017f656400000000000000000000000000000000000000000000000000000000000081525060400191505060405180910390fd5b3373ffffffffffffffffffffffffffffffffffffffff167fdec9a142fdb016e61863276bb7140a8fe34057431ccc100b0ad7c27f420e279760405160405180910390a26000600181905550565b60006004600083815260200190815260200160002090503373ffffffffffffffffffffffffffffffffffffffff168160000160009054906101000a900473ffffffffffffffffffffffffffffffffffffffff1673ffffffffffffffffffffffffffffffffffffffff1614151561094f576040517f08c379a00000000000000000000000000000000000000000000000000000000081526004018080602001828103825260268152602001807f4f6e6c79207468652073656e6465722063616e207265736f6c7665206120747281526020017f616e73666572000000000000000000000000000000000000000000000000000081525060400191505060405180910390fd5b8060020154431115156109f0576040517f08c379a00000000000000000000000000000000000000000000000000000000081526004018080602001828103825260248152602001807f5472616e7366657220646561646c696e6520686173206e6f742079657420706181526020017f737365640000000000000000000000000000000000000000000000000000000081525060400191505060405180910390fd5b610a468160010154600560003373ffffffffffffffffffffffffffffffffffffffff1673ffffffffffffffffffffffffffffffffffffffff16815260200190815260200160002054611a8690919063ffffffff16565b600560003373ffffffffffffffffffffffffffffffffffffffff1673ffffffffffffffffffffffffffffffffffffffff1681526020019081526020016000208190555060046000838152602001908152602001600020600080820160006101000a81549073ffffffffffffffffffffffffffffffffffffffff0219169055600182016000905560028201600090555050817fdefbe6f872fb46d202103aac561dccb7b51ab1d1e07f3814a2c757851f32879260405160405180910390a25050565b6000600560003373ffffffffffffffffffffffffffffffffffffffff1673ffffffffffffffffffffffffffffffffffffffff168152602001908152602001600020549050600081111515610bc3576040517f08c379a000000000000000000000000000000000000000000000000000000000815260040180806020018281038252601e8152602001807f42616c616e6365206d7573742062652067726561746572207468616e2030000081525060200191505060405180910390fd5b6000600560003373ffffffffffffffffffffffffffffffffffffffff1673ffffffffffffffffffffffffffffffffffffffff168152602001908152602001600020819055503373ffffffffffffffffffffffffffffffffffffffff167fb4214c8c54fc7442f36d3682f59aebaf09358a4431835b30efb29d52cf9e1e91826040518082815260200191505060405180910390a23373ffffffffffffffffffffffffffffffffffffffff166108fc829081150290604051600060405180830381858888f19350505050158015610c9c573d6000803e3d6000fd5b5050565b6000809054906101000a900473ffffffffffffffffffffffffffffffffffffffff1673ffffffffffffffffffffffffffffffffffffffff163373ffffffffffffffffffffffffffffffffffffffff16141515610d64576040517f08c379a00000000000000000000000000000000000000000000000000000000081526004018080602001828103825260188152602001807f4f6e6c792065786563757461626c65206279206f776e6572000000000000000081525060200191505060405180910390fd5b6000600154141515610dde576040517f08c379a00000000000000000000000000000000000000000000000000000000081526004018080602001828103825260118152602001807f416c726561647920696e6974696174656400000000000000000000000000000081525060200191505060405180910390fd5b600073ffffffffffffffffffffffffffffffffffffffff168173ffffffffffffffffffffffffffffffffffffffff1614151515610ea9576040517f08c379a00000000000000000000000000000000000000000000000000000000081526004018080602001828103825260238152602001807f42656e65666963696172792063616e206e6f74206265207a65726f206164647281526020017f657373000000000000000000000000000000000000000000000000000000000081525060400191505060405180910390fd5b611680430160018190555080600260006101000a81548173ffffffffffffffffffffffffffffffffffffffff021916908373ffffffffffffffffffffffffffffffffffffffff1602179055503373ffffffffffffffffffffffffffffffffffffffff167f8468ba03d4fb25dcd2a97a5383b05423a14d6f8d43afb9cb0c0ef75bdd55791e600154600260009054906101000a900473ffffffffffffffffffffffffffffffffffffffff16604051808381526020018273ffffffffffffffffffffffffffffffffffffffff1673ffffffffffffffffffffffffffffffffffffffff1681526020019250505060405180910390a250565b6000600260009054906101000a900473ffffffffffffffffffffffffffffffffffffffff16905090565b6000600154905090565b60008060009054906101000a900473ffffffffffffffffffffffffffffffffffffffff16905090565b6000809054906101000a900473ffffffffffffffffffffffffffffffffffffffff1673ffffffffffffffffffffffffffffffffffffffff163373ffffffffffffffffffffffffffffffffffffffff161415156110bf576040517f08c379a00000000000000000000000000000000000000000000000000000000081526004018080602001828103825260188152602001807f4f6e6c792065786563757461626c65206279206f776e6572000000000000000081525060200191505060405180910390fd5b600073ffffffffffffffffffffffffffffffffffffffff168173ffffffffffffffffffffffffffffffffffffffff161415151561118a576040517f08c379a00000000000000000000000000000000000000000000000000000000081526004018080602001828103825260218152602001807f6e65774f776e6572206d757374206265206e6f6e207a65726f2061646472657381526020017f730000000000000000000000000000000000000000000000000000000000000081525060400191505060405180910390fd5b8073ffffffffffffffffffffffffffffffffffffffff163373ffffffffffffffffffffffffffffffffffffffff167f1f8d7d25344642d919d55999e4664aa452a5f424bc0936ceb9c2b300db7dcbd960405160405180910390a3806000806101000a81548173ffffffffffffffffffffffffffffffffffffffff021916908373ffffffffffffffffffffffffffffffffffffffff16021790555050565b60008073ffffffffffffffffffffffffffffffffffffffff168273ffffffffffffffffffffffffffffffffffffffff16141515156112f3576040517f08c379a00000000000000000000000000000000000000000000000000000000081526004018080602001828103825260218152602001807f45786368616e6765206d757374206265206e6f6e207a65726f2061646472657381526020017f730000000000000000000000000000000000000000000000000000000000000081525060400191505060405180910390fd5b308383604051602001808473ffffffffffffffffffffffffffffffffffffffff1673ffffffffffffffffffffffffffffffffffffffff1681526020018381526020018273ffffffffffffffffffffffffffffffffffffffff1673ffffffffffffffffffffffffffffffffffffffff168152602001935050505060405160208183030381529060405280519060200120905092915050565b60006064905090565b60046020528060005260406000206000915090508060000160009054906101000a900473ffffffffffffffffffffffffffffffffffffffff16908060010154908060020154905083565b600073ffffffffffffffffffffffffffffffffffffffff168373ffffffffffffffffffffffffffffffffffffffff16141515156114a8576040517f08c379a00000000000000000000000000000000000000000000000000000000081526004018080602001828103825260218152602001807f45786368616e6765206d757374206265206e6f6e207a65726f2061646472657381526020017f730000000000000000000000000000000000000000000000000000000000000081525060400191505060405180910390fd5b3373ffffffffffffffffffffffffffffffffffffffff168373ffffffffffffffffffffffffffffffffffffffff161415151561154c576040517f08c379a00000000000000000000000000000000000000000000000000000000081526004018080602001828103825260198152602001807f53656e6465722063616e6e6f742062652065786368616e67650000000000000081525060200191505060405180910390fd5b61e10082111515156115ec576040517f08c379a00000000000000000000000000000000000000000000000000000000081526004018080602001828103825260288152602001807f4d617820646561646c696e6520697320353736303020626c6f636b73203d3e2081526020017f7e3134206461797300000000000000000000000000000000000000000000000081525060400191505060405180910390fd5b611680821015151561168c576040517f08c379a000000000000000000000000000000000000000000000000000000000815260040180806020018281038252602f8152602001807f446561646c696e65206d757374206265206174206c656173742035373630206281526020017f6c6f636b73203d3e207e3120646179000000000000000000000000000000000081525060400191505060405180910390fd5b600073ffffffffffffffffffffffffffffffffffffffff166004600083815260200190815260200160002060000160009054906101000a900473ffffffffffffffffffffffffffffffffffffffff1673ffffffffffffffffffffffffffffffffffffffff16141515611766576040517f08c379a000000000000000000000000000000000000000000000000000000000815260040180806020018281038252601c8152602001807f5365637265742068617320616c7265616479206265656e20757365640000000081525060200191505060405180910390fd5b61176e611b9b565b33816000019073ffffffffffffffffffffffffffffffffffffffff16908173ffffffffffffffffffffffffffffffffffffffff16815250506117ba606434611b1090919063ffffffff16565b8160200181815250506117d68343611a8690919063ffffffff16565b816040018181525050806004600084815260200190815260200160002060008201518160000160006101000a81548173ffffffffffffffffffffffffffffffffffffffff021916908373ffffffffffffffffffffffffffffffffffffffff16021790555060208201518160010155604082015181600201559050508373ffffffffffffffffffffffffffffffffffffffff163373ffffffffffffffffffffffffffffffffffffffff16837f36cc9aebfd054ab4999133a141d571503f8448de93b519f8188f84eb2a08b1156118b5606434611b1090919063ffffffff16565b6118c88843611a8690919063ffffffff16565b604051808381526020018281526020019250505060405180910390a450505050565b6000600460008481526020019081526020016000209050600061190d8333611227565b90508381141515611986576040517f08c379a00000000000000000000000000000000000000000000000000000000081526004018080602001828103825260108152602001807f536563726574206e6f742076616c69640000000000000000000000000000000081525060200191505060405180910390fd5b6119dc8260010154600560003373ffffffffffffffffffffffffffffffffffffffff1673ffffffffffffffffffffffffffffffffffffffff16815260200190815260200160002054611a8690919063ffffffff16565b600560003373ffffffffffffffffffffffffffffffffffffffff1673ffffffffffffffffffffffffffffffffffffffff1681526020019081526020016000208190555060046000858152602001908152602001600020600101600090556004600085815260200190815260200160002060020160009055837f9893be561c644490902540eacefe80ca735e4ceba88afc55fb499703f408057460405160405180910390a250505050565b6000808284019050838110151515611b06576040517f08c379a000000000000000000000000000000000000000000000000000000000815260040180806020018281038252601b8152602001807f536166654d6174683a206164646974696f6e206f766572666c6f77000000000081525060200191505060405180910390fd5b8091505092915050565b6000828211151515611b8a576040517f08c379a000000000000000000000000000000000000000000000000000000000815260040180806020018281038252601e8152602001807f536166654d6174683a207375627472616374696f6e206f766572666c6f77000081525060200191505060405180910390fd5b600082840390508091505092915050565b606060405190810160405280600073ffffffffffffffffffffffffffffffffffffffff1681526020016000815260200160008152509056fea165627a7a7230582054b239b3c9d83c5ca3dfc914c0ce37d9e7733a81c7614166eb662c0c35bb73850029",
  "source": "pragma solidity ^0.5.0;\n\nimport {Destroyable} from \"./Destroyable.sol\";\nimport {SafeMath} from \"./SafeMath.sol\";\n\ncontract Remittance is Destroyable {\n\n    using SafeMath for uint256;\n\n    /*\n     * State Variables\n     */\n\n    address private owner;\n    uint256 constant private FEE = 100;  // TODO ESTIMATE & ADJUST FEE\n    uint256 constant private MAX_DEADLINE = 57600;  // ~10 days\n    uint256 constant private MIN_DEADLINE = 5760;   // ~1  day\n\n    struct FxTransfer {\n        address sender;\n        uint256 amount;\n        uint256 deadline;\n    }\n\n    mapping(bytes32 => FxTransfer) public transferList;\n    mapping(address => uint256) public balances;\n\n\n    /*\n     * Events\n     */\n\n    event LogNewTransfer(bytes32 indexed secretHash, address indexed sender, address indexed exchange, uint256 amount, uint256 deadline);\n    event LogTransferCompleted(bytes32 indexed secretHash);\n    event LogTransferReverted(bytes32 indexed secretHash);\n    event LogWithdrawal(address indexed user, uint256 amount);\n\n\n    /*\n     * General Functions\n     */\n\n    function withdraw() public {\n        uint256 amount = balances[msg.sender];\n        require(amount > 0, \"Balance must be greater than 0\");\n        balances[msg.sender] = 0;\n        emit LogWithdrawal(msg.sender, amount);\n        msg.sender.transfer(amount);\n    }\n\n    function getFee() public pure returns (uint256) {\n        return FEE;\n    }\n\n\n    /*\n     * DAPP Logic Functions\n     */\n\n    function startTransfer(address exchange, uint256 deadline, bytes32 secretHash) public payable {\n        require(exchange != address(0), \"Exchange must be non zero address\");\n        require(exchange != msg.sender, \"Sender cannot be exchange\");\n        require(deadline <= MAX_DEADLINE, \"Max deadline is 57600 blocks => ~14 days\");\n        require(deadline >= MIN_DEADLINE, \"Deadline must be at least 5760 blocks => ~1 day\");\n        require(transferList[secretHash].sender == address(0), \"Secret has already been used\");\n\n        FxTransfer memory newTransfer;\n        newTransfer.sender = msg.sender;\n        newTransfer.amount = msg.value.sub(FEE);\n        newTransfer.deadline = block.number.add(deadline);\n\n        transferList[secretHash] = newTransfer;\n        emit LogNewTransfer(secretHash, msg.sender, exchange, msg.value.sub(FEE), block.number.add(deadline));\n    }\n\n    function completeTransfer(bytes32 secretHash, bytes32 secret) public {\n        FxTransfer storage transaction = transferList[secretHash];\n        bytes32 hashValue = createSecretHash(secret, msg.sender);\n        require(hashValue == secretHash, \"Secret not valid\");\n        balances[msg.sender] = balances[msg.sender].add(transaction.amount);\n        delete transferList[secretHash].amount;\n        delete transferList[secretHash].deadline;\n        emit LogTransferCompleted(secretHash);\n    }\n\n    function resolveTransfer(bytes32 secretHash) public {\n        FxTransfer storage transaction = transferList[secretHash];\n        require(transaction.sender == msg.sender, \"Only the sender can resolve a transfer\");\n        require(block.number > transaction.deadline, \"Transfer deadline has not yet passed\");\n        balances[msg.sender] = balances[msg.sender].add(transaction.amount);\n        delete transferList[secretHash];\n        emit LogTransferReverted(secretHash);\n    }\n\n    function createSecretHash(bytes32 secret, address exchange) public view returns (bytes32) {\n        require(exchange != address(0), \"Exchange must be non zero address\");\n        return keccak256(abi.encode(address(this), secret, exchange));\n    }\n}",
  "sourcePath": "/home/ku/dev/learn/b9lab/b9lab-eth-remittance/contracts/Remittance.sol",
  "compiler": {
    "name": "solc",
    "version": "0.5.0+commit.1d4f565a.Emscripten.clang"
  },
  "schemaVersion": "3.0.5",
  "updatedAt": "2019-06-05T11:53:27.377Z",
  "devdoc": {
    "methods": {}
  },
  "userdoc": {
    "methods": {}
  }
}